:100000000C9469000C9486000C9486000C94860075
:100010000C9486000C9486000C9486000C94860048
:100020000C9486000C9486000C9486000C94860038
:100030000C9486000C9486000C9486000C94860028
:100040000C94D5020C9486000C9486000C948600C7
:100050000C9486000C9486000C9486000C94860008
:100060000C9486000C9486008008810453051A06BF
:100070005E062C0725080608000000002300260065
:10008000290000000000240027002A0000000000D2
:10009000250028002B0004040404040404040202C4
:1000A00002020202030303030303010204081020F7
:1000B0004080010204081020010204081020000002
:1000C0000008000201000003040700000000000017
:1000D000000011241FBECFEFD8E0DEBFCDBF11E07E
:1000E000A0E0B1E0EAECF4E102C005900D92A03688
:1000F000B107D9F721E0A0E6B1E001C01D92A33D10
:10010000B207E1F70E941F030C94630A0C940000ED
:10011000CF92DF92EF92FF926115710581059105F3
:1001200049F06B017C010E948E09A70196010E9493
:10013000E50903C060E070E0CB01FF90EF90DF9035
:10014000CF900895BF92CF92DF92EF92FF920F93DC
:100150001F93CF93DF93EC0180917501882331F0D9
:1001600085E791E00E94090210927501CE01019687
:100170008B3F9105B0F185E00E94FB0065E070E0E7
:1001800080E090E00E948800D62FC0E087E0C82E73
:10019000D12CE12CF12C01E010E0CD1700F568E046
:1001A00070E080E090E00E948800B62E68E070E089
:1001B00080E090E00E948800A7019601261B370B83
:1001C000480B590BF901E357FE4F980101C0220F6C
:1001D000BA94EAF73081232B2083CF5FDECF80E013
:1001E00090E0DF91CF911F910F91FF90EF90DF9002
:1001F000CF90BF900895CF93DF938430C9F480E00F
:1002000090E00896FC01E357FE4F28E03191DF01B2
:1002100019973C932150D1F78833910591F7E5EC7C
:10022000F1E08DEC91E011928E179F07E1F750C03D
:100230008530B9F485EC91E0EDE8F1E0DC0120E0F7
:10024000ED01289738813D932F5F2830C9F7089733
:10025000E817F90799F7119281E0E539F807D9F71E
:1002600037C08230C1F4EDE8F1E09F0188E0D901A8
:1002700097E011964C9111974D939150D1F7815081
:10028000285F3F4F8111F3CF1782389681E0ED3C14
:10029000F807D1F71DC08330D9F4EDE8F1E09F01F4
:1002A00088E0D90197E016964C91169717964C93D3
:1002B0001797915011979111F6CF8150285F3F4FBA
:1002C0008111EFCF1082389681E0ED3CF807D1F72D
:1002D000DF91CF910895E7E0F0E0CF01841B910911
:1002E000E21BF10923E0880F991F2A95E1F7835754
:1002F0009E4FE80FF91F81E090E001C0880F6A95DA
:10030000EAF79081892B808308956F927F928F9274
:100310009F92AF92BF92CF92DF92EF92FF920F9394
:100320001F93CF93DF93EC01E62EF42EB22E602EB6
:10033000640E142F762E741A822E841ACC24CA943A
:10034000C20EC00EDD24DA94D60ED00E8FEF840FCD
:10035000080F161509F44EC02B2D412F6E2DCE011E
:100360000E946B01972C910E2B2D4F2D692DCE01E4
:100370000E946B01A82CA10E2A2D4F2D6E2DCE01AF
:100380000E946B012C2D412F6D2DCE010E946B011F
:100390002C2D402F692DCE010E946B012A2D402F5C
:1003A0006D2DCE010E946B012B2D412F6D2DCE01A5
:1003B0000E946B012C2D412F6E2DCE010E946B01EE
:1003C0002B2D402F692DCE010E946B012C2D4F2D1E
:1003D000692DCE010E946B012A2D4F2D6D2DCE016E
:1003E0000E946B012A2D402F6E2DCE010E946B01C1
:1003F0001F5FAFCFDF91CF911F910F91FF90EF90D3
:10040000DF90CF90BF90AF909F908F907F906F9034
:1004100008954DE851E028E080E090E0FA01E80F0F
:10042000F91F1082019688309105C1F72150485F6D
:100430005F4F2111F1CF0895833081F028F481308E
:1004400099F08230A1F008958730A9F08830B9F092
:100450008430D1F4809180008F7D03C08091800032
:100460008F7780938000089584B58F7702C084B51C
:100470008F7D84BD08958091B0008F7703C08091F7
:10048000B0008F7D8093B00008951F93CF93DF93CA
:10049000282F30E0F901E254FF4F8491F901E6552D
:1004A000FF4FD491F901EA56FF4FC491CC23C1F01C
:1004B000162F81110E941C02EC2FF0E0EE0FFF1F9F
:1004C000E457FF4FA591B4919FB7F894111104C060
:1004D0008C91D095D82302C0EC91DE2BDC939FBF8A
:1004E000DF91CF911F910895CF93DF9390E0FC01AE
:1004F000E655FF4F2491FC01EA56FF4F8491882373
:1005000061F190E0880F991FFC01EE57FF4FC591F4
:10051000D491FC01E457FF4FA591B491611109C03A
:100520009FB7F8948881209582238883EC912E23AD
:100530000BC0623061F49FB7F8948881322F3095F8
:1005400083238883EC912E2B2C939FBF06C08FB7FB
:10055000F894E8812E2B28838FBFDF91CF910895E7
:100560003FB7F8948091CF019091D001A091D10133
:10057000B091D20126B5A89B05C02F3F19F0019676
:10058000A11DB11D3FBFBA2FA92F982F8827820F19
:10059000911DA11DB11DBC01CD0142E0660F771F69
:1005A000881F991F4A95D1F708951F920F920FB691
:1005B0000F9211242F933F938F939F93AF93BF93E9
:1005C0008091890190918A01A0918B01B0918C0159
:1005D0003091CE0123E0230F2D3720F40196A11D89
:1005E000B11D05C026E8230F0296A11DB11D209361
:1005F000CE018093890190938A01A0938B01B093DF
:100600008C018091CF019091D001A091D101B09146
:10061000D2010196A11DB11D8093CF019093D0010D
:10062000A093D101B093D201BF91AF919F918F91CF
:100630003F912F910F900FBE0F901F9018957894B7
:1006400084B5826084BD84B5816084BD85B58260D7
:1006500085BD85B5816085BD80916E008160809388
:100660006E001092810080918100826080938100F1
:100670008091810081608093810080918000816001
:10068000809380008091B10084608093B10080915C
:10069000B00081608093B00080917A008460809384
:1006A0007A0080917A00826080937A0080917A004B
:1006B000816080937A0080917A00806880937A00CC
:1006C0001092C10085E791E09093720180937101CF
:1006D000C1E0C09375010E9409021092630110925B
:1006E00061011092620110926D0110926C011092E2
:1006F0006B011092640110926501109270011092CA
:100700006F0110926E0110926701C0936601109202
:100710008101109282011092830110928401109243
:100720008501109286011092870110928801109223
:100730007601CFB7F89480916001811127C0E0EA7B
:10074000F0E08491E4EBF0E09491E82FF0E0EE0F1C
:10075000FF1FEE57FF4FA591B491EC91E92321F4CF
:1007600061E08AE00E94450261E08AE00E94740232
:100770008CB580618CBD8CB580648CBD61E08DE0F2
:100780000E94740261E08BE00E947402809160011B
:100790008F5F80936001CFBF80E58CBD81E08DBD10
:1007A00062E088E00E94740261E085E00E947402C9
:1007B00061E087E00E94740280E480937C00809175
:1007C0007A00806480937A0080917A0086FDFCCF65
:1007D000609178008091790070E0782B072E000CF2
:1007E000880B990B611571058105910511F00E9427
:1007F000DC0961E087E00E944502C7E0D0E06624A2
:100800006394712C28E0922E34E0832E8FB7F894F5
:10081000C0908901D0908A01E0908B01F0908C010A
:100820008FBF2091810130918201409183015091CD
:10083000840160918501709186018091870190917A
:100840008801A1E00E944E0A209381013093820129
:1008500040938301509384016093850170938601D6
:100860008093870190938801E6ECF0E08491E2EBBD
:10087000F0E01491EEE9F0E00491002309F47BC468
:1008800081110E941C02E02FF0E0EE0FFF1FE858DC
:10089000FF4FA591B4918C91182309F46CC45601B3
:1008A00067019501A60160E070E080E090E0A09013
:1008B0007901B0907A01C0907B01D0907C01E090EA
:1008C0007D01F0907E0100917F01109180010E94D6
:1008D0005A0A2738334141055105610571058105E3
:1008E000910511F008F047C4E09176018E2F90E059
:1008F0008830910508F004C4FC01EC5CFF4F0C94B7
:10090000480A80917501811105C08091770190910D
:1009100078015DC085E791E00E94090263E070E024
:1009200080E090E00E948800E62E62E070E080E0C7
:1009300090E00E94880087E0689FF02C1124F092DC
:1009400063010091710110917201D12CC12CE11051
:1009500004C02C2D4D2D6F2D0CC071E0E71203C08B
:100960002C2D4F2D05C082E0E81206C02F2D4C2DF6
:100970006D2DC8010E946B01C39498E0C912E7CFA6
:10098000D394D912E3CFE11007C0F11003C0109245
:10099000610117C081E013C0E1E0EE1207C0F11061
:1009A00003C0809261010DC085E009C0F2E0EF1242
:1009B00008C0F11003C0E092610103C083E080939E
:1009C0006101109262011092750180E090E0019641
:1009D000853C29E0920708F45BC010916101111178
:1009E00013C08DE891E028E0FC0138E04081440F1D
:1009F00041933150D9F7215008962111F5CFE0915C
:100A00007101F091720121C01130B1F42DE831E093
:100A100048E0F90158E0808190E0959587958193B1
:100A20005150C9F74150285F3F4F4111F2CFE0913B
:100A30007101F091720116C0812F0E94FB00E091BC
:100A40007101F091720110FD0DC0809163018F5F03
:100A5000809363018730D1F48091620181110DC0D0
:100A60001F5F0FC0809163018150809363018111EA
:100A70000DC080916201882319F081E0808306C057
:100A800011501093610181E08093620180E090E059
:100A90009093780180937701BDE8EB2EB1E0FB2EB7
:100AA00000E010E054C3009177011091780180912B
:100AB0007501882301F185E791E00E940902F12C7C
:100AC000A7E0DA2EE12C62E070E080E090E00E9486
:100AD00088006D9D402D11242E2D6F2D85E791E00E
:100AE0000E946B01E39458E0E512EDCFF394F51208
:100AF000E9CF109275010F5F1F4F0D38110508F4F3
:100B0000FAC28091650181113AC068E070E080E02E
:100B100090E00E94880060936D0168E070E080E0E2
:100B200090E00E94880060936B01FE01E61BF109D2
:100B3000930100906D0102C0220F331F0A94E2F767
:100B4000E357FE4F80AD90E08223932328173907A7
:100B500029F410926C01809264010DC0808190E0B4
:100B6000822393232817390731F487E080936C019F
:100B700085E08093640181E08093650198C2809153
:100B80007101909172012091640110916D01E090CA
:100B90006C0100916B01243031F5FF24F394FE0CBD
:100BA000F0926C01202F4F2D612F0E946B01CE011E
:100BB0008E1991099E01201B3109F3E0880F991FBE
:100BC000FA95E1F783579E4FFC01E20FF31FC30133
:100BD00001C0880F1A95EAF790818927808377E012
:100BE000F71265C224C0FF24FA94FE0CF0926C0147
:100BF000202F4F2D612F0E946B01CE018E1991097C
:100C00009E01201B3109E3E0880F991FEA95E1F767
:100C100083579E4FFC01E20FF31FC30101C0880FF1
:100C20001A95EAF7908189278083F11040C21092CB
:100C300065013DC2009177011091780180917501A5
:100C4000882361F085E791E00E94090282E08093A9
:100C5000670181E080936601109275010F5F1F4F5D
:100C60000F3581E0180708F446C2E0907101F0905A
:100C700072019091660180916701992341F08E5F26
:100C800080936701883059F41092660108C0825041
:100C900080936701823019F481E080936601C70177
:100CA0000E94090200916701802F8695682D681BBC
:100CB000262F462FC7010E948501F9C100917701B7
:100CC0001091780180917501882369F185E791E0A1
:100CD0000E94090262E070E080E090E00E948800DB
:100CE00077E0F72E6F9D602D112460936A0162E01A
:100CF00070E080E090E00E9488006F9D602D1124DC
:100D00006093690162E070E080E090E00E948800FA
:100D10006F9DF02C1124F09268019092670110925F
:100D20006601109275010F5F1F4F093C110508F411
:100D3000E2C185E791E00E940902809171019091E2
:100D4000720120916A0121110BC0209169012111CA
:100D500021C020916801211128C0009167012BC09A
:100D6000273009F03FC020916901009167012730C9
:100D700041F420916801273001F5692D601B262F71
:100D800020C021112FC020916801211123C0692D9D
:100D9000601B25C0273031F5209168010091670163
:100DA000211111C0492D401B13C02730D9F40091E7
:100DB0006701292D201B40E00BC0211113C0692DB4
:100DC000601B462F0DC0273069F4492D401B242F8E
:100DD00060E006C0273031F4692D601B262F40E00B
:100DE0000E9485019091660180916701992359F1D4
:100DF0008F5F80936701883009F059C110926601B6
:100E000062E070E080E090E00E94880017E0619F5F
:100E1000602D112460936A0162E070E080E090E050
:100E20000E948800619F602D11246093690162E037
:100E300070E080E090E00E948800619F602D1124A6
:100E40006093680134C1815080936701813009F05B
:100E50002EC1809366012BC100917701109178011A
:100E600080917501882369F085E791E00E9409026D
:100E70001092700110926F0181E080936E011092C8
:100E800075010F5F1F4F0930110508F434C100913F
:100E900071011091720120916E0180916F0190910A
:100EA0007001222309F45EC0803CE1E09E07F0F56A
:100EB00068E070E080E090E00E94880060936D013F
:100EC00068E070E080E090E00E94880060936C0130
:100ED00068E070E080E090E00E948800262F609338
:100EE0006B0140916C0160916D01D301062E02C02F
:100EF000AA0FBB1F0A94E2F7FE01E41BF109CE0121
:100F0000821B910953E0EE0FFF1F5A95E1F7E3575B
:100F1000FE4FE80FF91F808190E08A239B23A817DA
:100F2000B90731F2C8010E946B015BC08115F2E084
:100F30009F07A8F44DE851E068E020E030E0FA01B6
:100F4000E20FF31F7FEF70832F5F3F4F2830310593
:100F5000B1F76150485F5F4F6111EFCF46C010920B
:100F60006E014FC0803C914008F045C068E070E0E1
:100F700080E090E00E94880060936D0168E070E07E
:100F800080E090E00E94880060936C0168E070E06F
:100F900080E090E00E94880060936B0180916C017A
:100FA000FE01E81BF109CE01861B910933E0EE0F2B
:100FB000FF1F3A95E1F7E357FE4FE80FF91F408115
:100FC000C30100906D0102C0880F991F0A94E2F7D7
:100FD000242F30E0282339238217930739F68427FA
:100FE000808380916F0190917001019690937001C0
:100FF00080936F015CC0C8010E94090281E0809368
:101000006E011092700110926F0151C080917501B4
:10101000882309F441CD85E791E00E9409022DE87B
:1010200031E048E080E090E0F901E80FF91F5FEF60
:101030005083019688309105B9F74150285F3F4FA2
:101040004111F0CF1092750127CD009177011091D9
:10105000780180917501882359F085E791E00E941D
:1010600009027FEF70937401109273011092750161
:101070000F5F1F4F093E83E01807E8F183E00E94ED
:10108000FB00809174018F5F80937401873059F465
:10109000809173018F5F809373018A3010F01092FA
:1010A00073011092740180917401882319F000E09B
:1010B00010E021C0EDE8F1E0A0917301B0E0AC5A7E
:1010C000BE4F8C91082E000C990BC09723E0880F1F
:1010D000991F2A95E1F720E030E0D901A80FB91F48
:1010E000AC5FBE4F4C9140832F5F3F4F3896283006
:1010F000310599F7DCCF1093780100937701CCCCC0
:1011000080917701909178010E94A200C1CC0DB42A
:1011100007FEFDCF8EB580E090E0F701E80FF91FE4
:1011200020812EBD00000DB407FEFDCF2EB5019627
:101130008830910591F761E08AE00E9445020F5FD7
:101140001F4F98E0E90EF11C0830110569F060E0CE
:101150008AE00E944502C301002E01C0880F0A9454
:10116000EAF78EBD0000D3CFE0E0F0E0309709F45D
:101170004DCB099547CB8FB7F89400918901109119
:101180008A0120918B0130918C018FBF00937901EE
:1011900010937A0120937B0130937C0110927D01A2
:1011A00010927E0110927F011092800185E791E0FC
:1011B0000E94090281E080937501109278011092DB
:1011C0007701809176018F5F883009F059C01092C5
:1011D00076016091810170918201809183019091EB
:1011E0008401611571058105910511F00E94DC09EA
:1011F0001092810110928201109283011092840159
:101200001092850110928601109287011092880138
:1012100061E085E00E94450260E087E00E944502AF
:101220000E94B0021B012C0184EFC82EDD24D39450
:10123000E12CF12C0E94B002DC01CB018219930950
:10124000A409B509883E9340A105B10598F3F1E0E2
:10125000CF1AD108E108F10828EE220E23E0321E51
:10126000411C511CC114D104E104F10419F760E0E0
:1012700085E00E94450261E087E00E94450234CB90
:1012800080937601A6CF8F929F92AF92BF92CF921A
:10129000DF92EF92FF92CF93DF93EC016881798127
:1012A0008A819B81611571058105910521F464E2B4
:1012B00079ED8BE597E02DE133EF41E050E00E94BE
:1012C000E50949015A019B01AC01A7EAB1E40E947A
:1012D000040A6B017C01ACEEB4EFA50194010E94FD
:1012E000120ADC01CB018C0D9D1DAE1DBF1DB7FF89
:1012F00003C00197A109B04888839983AA83BB835F
:10130000BC01CD019F77DF91CF91FF90EF90DF90EF
:10131000CF90BF90AF909F908F9008958F929F92A3
:10132000AF92BF92CF92DF92EF92FF926091000155
:101330007091010180910201909103016115710585
:101340008105910521F464E279ED8BE597E02DE1CB
:1013500033EF41E050E00E94E50949015A019B0149
:10136000AC01A7EAB1E40E94040A6B017C01ACEE77
:10137000B4EFA50194010E94120ADC01CB018C0D8F
:101380009D1DAE1DBF1DB7FF03C00197A109B04849
:101390008093000190930101A0930201B093030197
:1013A000BC01CD019F77FF90EF90DF90CF90BF9071
:1013B000AF909F908F90089560930001709301010A
:1013C00080930201909303010895052E97FB1EF46C
:1013D00000940E94FC0957FD07D00E94170A07FCE1
:1013E00003D04EF40C94FC0950954095309521950E
:1013F0003F4F4F4F5F4F0895909580957095619541
:101400007F4F8F4F9F4F08950E94390AA59F900DDF
:10141000B49F900DA49F800D911D11240895B7FFD6
:101420000C94040A0E94040A821B930B0895A1E203
:101430001A2EAA1BBB1BFD010DC0AA1FBB1FEE1F4E
:10144000FF1FA217B307E407F50720F0A21BB30B99
:10145000E40BF50B661F771F881F991F1A9469F715
:1014600060957095809590959B01AC01BD01CF0171
:101470000895A29FB001B39FC001A39F700D811D6D
:101480001124911DB29F700D811D1124911D08958D
:10149000EE0FFF1F0590F491E02D09940024A7FDA5
:1014A00000942A0F301D401D501D601D701D801DB1
:1014B000901D08952A193B094C095D096E097F09A1
:0A14C000800B910B0895F894FFCF04
:1014CA00010000003C4242424242423C10181410C1
:1014DA001010103C3C4240403C02027E3C40403CE2
:1014EA004040423C222222227E2020207E02023ECE
:1014FA004040423C3C02023E4242423C3C40404068
:10150A00404040403C42423C4242423C3C424242D1
:10151A003C40403C303132333435363738390000BC
:00000001FF
